:100000000C941F020C943E020C943E020C943E028F
:100010000C943E020C94A7080C943E020C943E02F1
:100020000C943E020C943E020C949C080C943E02EC
:100030000C943C080C943E020C943E020C943E023C
:100040000C94C4070C943E020C943E020C943E02A5
:100050000C943E020C94B6070C943E020C943E02A3
:100060000C943E020C943E020C943E020C943E0210
:100070000C943E020C943E020C943E020C943E0200
:100080000C943E020C94F5150C943E02151D061DB1
:10009000EE1CE31CCC1C251DEB1DE20BEA0BF20B46
:1000A000FA0B020C0B0C140CD20BDA0B680D600D62
:1000B0005B0D850D780D800D700D390D310D2C0DFA
:1000C000240D8D0D410D170DFF0CAD0D560D4E0D70
:1000D000460DCD0D070DBD0D0F0DDA0DA50DC50D8E
:1000E0001F0D9D0D950DB50DFA0CC80CC00CD00C54
:1000F000D20DB30CAB0CD50C8E0CF20CBB0C9E0CC1
:10010000960CE20CA60CDA0C860C6C0CEA0C5C0C5F
:10011000540C790C710C7E0C4F0C640C370C470C92
:10012000320C2A0C220C1D0C3F0CE40E020FDE0ECA
:10013000F00ED20ED80ED20ED80E080FE40E020F1B
:10014000DE0EF00EEA0ECC0EEA0ECC0E320F6E0F63
:10015000260F9E0F260F620F5C0FCC0E380FCC0EB1
:100160004A0FF60E8C0FD20E800F0E0F860F140F53
:10017000920F560FFC0EF60E3E0F1A0FE40E020FF2
:10018000DE0EF00ED20ED80ED20ED80E080FE40EF0
:10019000680FFC0EDE0EEA0ECC0EEA0ECC0E320F0D
:1001A000740F440F080F7A0F380F0E0F140FF60E4E
:1001B000FC0E980F1A0FB60FDA0FB00FD40F5810AD
:1001C0005210B00FDA0FE00FBC0F6410B00FB60F73
:1001D000D40FB00F1C10B00FC80FB60FF80FE00F00
:1001E000BC0FF20F7610C80FE60F82103410E60F26
:1001F0004C10B00FB60FD40FB00F1610BC0FDA0FA3
:10020000B00FC80FB60FF80FE00FBC0F70100A1038
:100210000410CE0FFE0FEC0FCE0F401046103A1018
:100220000A100410CE0FFE0FEC0F5E106A10F20FD2
:100230002210281032152615201514150E1502153A
:10024000FC14F614F014EA14DE14D814D214C614F4
:10025000C014B414AE14A2149C1490148A14841400
:100260007E1478146C14661460145A1454144814D0
:100270004214361430142A142414181412140614B8
:100280000014F413EE13E213DC13D013CA13BE13DD
:10029000B813B213AC13A6139A1394138E138813C6
:1002A00082137613701364135E135813521346139C
:1002B00040133A1334132E1322131C1310130A1372
:1002C0000413FE12F212EC12E612E012D412CE1255
:1002D000C812C212BC12B012AA129E1298128C122C
:1002E00086127A127412681262125C12561250123E
:1002F00044123E1232122C122612201214120E1226
:1003000008120212F611F011E411DE11D211CC1113
:10031000C011BA11AE11A8119C1196118A11841145
:100320007E1178117211661160115A114E11481127
:100330003C1136112A112411181112110C11061139
:10034000FA10F410E810E210D610D010C410BE104D
:10035000B810B210AC10A0109A1094103815621595
:1003600050156215501562155015861550158615D5
:100370006E155C159E155C158C157A156815501553
:1003800068155015681550158015501580156E1597
:100390009215981550155C15A4157A1535160C167E
:1003A0000C160C160C160C160C160C1635160C1614
:1003B0000C160C160C160C160C160C163F160C16FA
:1003C0000C160C160C160C160C160C160C160C161D
:1003D0000C160C160C160C160C160C163F160C16DA
:1003E0000C160C160C160C160C160C160C160C16FD
:1003F0000C160C160C160C160C160C165A160C169F
:100400000C160C160C160C160C160C165E160C168A
:100410000C160C160C160C160C160C160C160C16CC
:100420000C160C160C160C160C160C166C160C165C
:100430000C160C160C160C160C160C16261611247F
:100440001FBECFEFD0E1DEBFCDBF11E0A0E0B1E035
:10045000EEE4F5E400E00BBF02C007900D92A8386F
:10046000B107D9F723E0A8E8B1E001C01D92AF358C
:10047000B207E1F70E94FD190C94A5220C9400002C
:10048000662351F0613059F48A30910578F4FC010B
:10049000E659FE4F808108958A30910510F08FEF64
:1004A0000895FC01EC58FE4F808108958FE7089570
:1004B00000000000E82FF0E049B3EE0FFF1FE25606
:1004C000FE4F20813181220F331F306E50E002C079
:1004D000559547958A95E2F741705527242B352B82
:1004E0003183208381E02115304F09F080E00895A9
:1004F000CF92DF92EF92FF920F931F93CF93DF93F0
:10050000EC0177FD24C080E090E00E94962120E07D
:100510003CEC4CE455E40E9402210E946A212AE04E
:1005200030E0CB01B9010E941F208C01CB01B90141
:100530000E941F200E9425178883C8010E9425174A
:1005400089838881803309F452C080E053C07F776B
:1005500060957095605F7F4F80E090E00E949621EB
:1005600020E03CEC4CE455E40E9402210E946A2108
:100570006B017C019B01ADECBCEC0E946C208C01FA
:1005800016950795169507951695079598010E945B
:100590006C209695879596958795969587959C015D
:1005A000220F331F880F991F880F991F880F991FDB
:1005B000280F391FC801821B930B0E9425178883BF
:1005C000C801880F991F000F111F000F111F000F86
:1005D000111F800F911F9601281B390BC9010E9422
:1005E000251789838881803371F081E003C080E220
:1005F000888380E0DF91CF911F910F91FF90EF9062
:10060000DF90CF9008958DE2888380E0F3CFCF9381
:10061000AC018A30910508F44AC08436910508F48B
:10062000A3C4883E23E0920708F49CC484E0909120
:100630009701913009F441C0913008F4A3C0923081
:1006400009F072C0833009F4D1C0843009F479C351
:10065000823009F432C380919001882309F45EC28C
:100660009A01ADECBCEC0E946C209695879596950E
:100670008795969587959C01220F331F880F991FA8
:10068000880F991F880F991F280F391F421B530B82
:100690004093390210923A0280919A0186FF4AC330
:1006A000809162018C30E0F110923B0298C081E0B1
:1006B00090919701913009F0BFCF833009F407C1C1
:1006C000843009F427C2823009F4E1C1809190019D
:1006D000882309F423C29A01ADECBCEC0E946C2083
:1006E0009695879596958795969587959C01220F67
:1006F000331F880F991F880F991F880F991F280F84
:10070000391F421B530B4093390210923A028091D9
:100710009A0186FDF9C1809169018B508C3020F2DD
:1007200082E080933B025BC09A01ADECBCEC83306D
:1007300009F44FC1843009F437C2823009F4FBC197
:100740000E946C20969587959695879596958795A6
:100750009C01220F331F880F991F880F991F880F44
:10076000991F280F391F421B530B409339028FEFFB
:1007700080933A0280933B0280933C0280933D0237
:10078000CF9108959A01ADECBCEC833009F4E6C03A
:10079000843009F454C3823009F41AC30E946C20D7
:1007A0009695879596958795969587959C01220FA6
:1007B000331F880F991F880F991F880F991F280FC3
:1007C000391F421B530B4093390210923A02809119
:1007D0008F01882309F494C18FEF80933B0210921C
:1007E0003C028FEF80933D02CF910895809190015C
:1007F000882309F493C19A01ADECBCEC0E946C20F3
:10080000FC01F695E795F695E795F695E795CF0106
:10081000880F991F9F01220F331F220F331F220FB2
:10082000331F820F931F9A01281B390B2093390223
:100830009F010E946C209695879596958795969531
:1008400087959C01220F331F880F991F880F991FCE
:10085000880F991F280F391FE21BF30BE0933A0210
:1008600080919A0186FD78C3809162018B508C3013
:1008700008F070C010923B029A0136952795369584
:100880002795ABE7B4E10E946C20FC01F695E79553
:100890009F01ADECBCEC0E946C20969587959695D7
:1008A000879596958795AC01440F551F880F991F22
:1008B000880F991F880F991F480F591FE41BF50BCC
:1008C000E0933C028FEF80933D02CF910895809199
:1008D0009001882309F422C19A01ADECBCEC0E947E
:1008E0006C20FC01F695E795F695E795F695E7956A
:1008F000CF01880F991F9F01220F331F220F331F33
:10090000220F331F820F931F9A01281B390B20934C
:1009100039029F010E946C20969587959695879540
:10092000969587959C01220F331F880F991F880F7A
:10093000991F880F991F280F391FE21BF30BE093B3
:100940003A0280919A0186FFF3C2809169018C304E
:1009500008F090CF82E080933B028ECF0E946C2003
:10096000FC01F695E795F695E795F695E795CF01A5
:10097000880F991F9F01220F331F220F331F220F51
:10098000331F820F931F9A01281B390B20933902C2
:100990009F010E946C2096958795969587959695D0
:1009A00087959C01220F331F880F991F880F991F6D
:1009B000880F991F280F391FE21BF30BE0933A02AF
:1009C00080918F01882309F4BCCF8FEF80933B0285
:1009D00053CF0E946C20FC01F695E795F695E795BC
:1009E000F695E795CF01880F991F9F01220F331FBE
:1009F000220F331F220F331F820F931F9A01281BD0
:100A0000390B209339029F010E946C20969587959F
:100A100096958795969587959C01220F331F880F91
:100A2000991F880F991F880F991F280F391FE21BE4
:100A3000F30BE0933A02CFEFC0933B029A01369555
:100A4000279536952795ABE7B4E10E946C20FC0111
:100A5000F695E7959F01ADECBCEC0E946C20969555
:100A600087959695879596958795AC01440F551F68
:100A7000880F991F880F991F880F991F480F591FBA
:100A8000E41BF50BE0933C02C0933D0279CE8091CC
:100A90009001882309F442C09A01ADECBCEC0E949D
:100AA0006C20FC01F695E795F695E795F695E795A8
:100AB000CF01880F991F9F01220F331F220F331F71
:100AC000220F331F820F931F481B590B409339028B
:100AD0009F010E946C20969587959695879596958F
:100AE00087959C01220F331F880F991F880F991F2C
:100AF000880F991F280F391FE21BF30BE0933A026E
:100B000080919A0186FF07CE809169018C3008F0B0
:100B1000CBCD06CE809190018111D4C18FEF80930F
:100B2000390280933A0280933B0280933C02809387
:100B30003D02CF9108950E946C20FC01F695E79547
:100B4000F695E795F695E795CF01880F991F9F01D8
:100B5000220F331F220F331F220F331F820F931FC9
:100B6000481B590B409339029F010E946C209695B7
:100B7000879596958795969587959C01220F331FAB
:100B8000880F991F880F991F880F991F280F391FE9
:100B9000E21BF30BE0933A028FEF80933B028093CA
:100BA0003C0280933D02ECCD0E946C20FC01F69546
:100BB000E795F695E795F695E795CF01880F991F8C
:100BC0009F01220F331F220F331F220F331F820F6B
:100BD000931F9A01281B390B209339029F010E9411
:100BE0006C209695879596958795969587959C0107
:100BF000220F331F880F991F880F991F880F991F85
:100C0000280F391FE21BF30BE0933A028FEF80931A
:100C10003B029A013695279536952795ABE7B4E1C7
:100C20000E946C20FC01F695E7959F01ADECBCECB1
:100C30000E946C20969587959695879596958795B1
:100C4000BC01660F771F880F991F880F991F880FA7
:100C5000991F680F791FE61BF70BE0933C029A017E
:100C6000369527953695279536952795A5ECB0E2CC
:100C70000E946C20FC01F295E295EF70EF27FF7067
:100C8000EF279F01ADECBCEC0E946C2096958795F8
:100C90009695879596958795AC01440F551F880FBB
:100CA000991F880F991F880F991F480F591FE41B20
:100CB000F50BE0933D02CF91089580919001882338
:100CC00009F42CCF9A01ADECBCEC0E946C20FC0125
:100CD000F695E795F695E795F695E795CF01880F98
:100CE000991F9F01220F331F220F331F220F331F23
:100CF000820F931F481B590B409339029F010E949A
:100D00006C209695879596958795969587959C01E5
:100D1000220F331F880F991F880F991F880F991F63
:100D2000280F391FE21BF30BE0933A0280919A01DE
:100D300086FDB6CC809162018B508C3008F0F0CCEF
:100D4000B3CC80919001882309F4E8CE9A01ADECF0
:100D5000BCEC0E946C20FC01F695E795F695E795B2
:100D6000F695E795CF01880F991F9F01220F331F3A
:100D7000220F331F220F331F820F931F9A01281B4C
:100D8000390B209339029F010E946C20969587951C
:100D900096958795969587959C01220F331F880F0E
:100DA000991F880F991F880F991F280F391FE21B61
:100DB000F30BE0933A0280919A0186FDC7C08091BF
:100DC00062018B508C3008F079C010923B0221CF29
:100DD0000E946C20FC01F695E795F695E795F6954F
:100DE000E795CF01880F991F9F01220F331F220F14
:100DF000331F220F331F820F931F481B590B409341
:100E000039029F010E946C2096958795969587954B
:100E1000969587959C01220F331F880F991F880F85
:100E2000991F880F991F280F391FE21BF30BE093BE
:100E30003A0280918F01882309F462CECDCC0E94C2
:100E40006C20FC01F695E795F695E795F695E79504
:100E5000CF01880F991F9F01220F331F220F331FCD
:100E6000220F331F820F931F9A01281B390B2093E7
:100E700039029F010E946C209695879596958795DB
:100E8000969587959C01220F331F880F991F880F15
:100E9000991F880F991F280F391FE21BF30BE0934E
:100EA0003A0280918F018111B1CE80919A0186FF23
:100EB00046C0809169018C3008F087CF82E0809332
:100EC0003B02A7CE9A01ADECBCEC0E946C20FC0169
:100ED000F695E795F695E795F695E795CF01880F96
:100EE000991F9F01220F331F220F331F220F331F21
:100EF000820F931F9A01281B390B209339029F01FF
:100F00000E946C20969587959695879596958795DE
:100F10009C01220F331F880F991F880F991F880F7C
:100F2000991F280F391FE21BF30BE0933A02BDCF44
:100F3000809169018B508C3008F00CCD9BCC809156
:100F400069018B508C3008F0B9CF3FCF809162019E
:100F50008C3008F03ACFB2CF809162018C3008F02B
:100F600089CCF8CC83E063CB82E061CB1F920F92F7
:100F70000FB60F9211248F9385B183BD8F910F907F
:100F80000FBE0F901F9018951F920F920FB60F92E1
:100F900011242F933F935F936F937F938F939F932E
:100FA000AF93BF9380919C0190919D010196909386
:100FB0009D0180939C019C0127703327232B21F4F2
:100FC00020918A0121114DC09C012F7333272830B5
:100FD0003105D0F5109290019C012F773327232BF8
:100FE000B1F420918F0131E0232720938F013093BA
:100FF0008C01209195012F5F20939501209116027D
:101000002F5F2093160220918901211124C060E8EE
:1010100072E00E941F20892B49F4809188018F5F24
:1010200080938801823010F010928801BF91AF91B7
:101030009F918F917F916F915F913F912F910F9031
:101040000FBE0F901F9018952131310528F221E035
:1010500020939001C1CF20918D012F5F20938D01AE
:10106000D6CF20917202309173022F5F3F4F3093A1
:10107000730220937202A8CF1F920F920FB60F92A5
:1010800011240BB60F922F933F934F935F936F935F
:101090007F938F939F93AF93BF93EF93FF93809131
:1010A0008B018823C1F18250843098F0FF91EF9139
:1010B000BF91AF919F918F917F916F915F914F9170
:1010C0003F912F910F900BBE0F900FBE0F901F906E
:1010D000189580918A01882339F080911402882321
:1010E00019F085B3805885BB20917202309173024C
:1010F000809170029091710228173907B8F280919F
:101100006E028F5F80936E0260916E0280916F021B
:101110000E94AA15CBCF80918A01882339F2809151
:101120001402882319F280918F01882309F4BECF1D
:1011300085B3805885BBBACF1F920F920FB60F921E
:101140001124369A0F900FBE0F901F9018951F9282
:101150000F920FB60F9211248F9381E080934B036F
:101160008F910F900FBE0F901F90189591E08111F5
:1011700001C090E09FB9779BFECF6FB9779BFECF00
:101180008091620088608093620080916200877F16
:10119000809362000895CF93C091AE018C0F911D92
:1011A000FC01608181E00E94B60881E08C0F809391
:1011B000AE01803181F0803211F0CF91089585ED3C
:1011C0008A95F1F7000060E880E00E94B60810926E
:1011D000AE01CF910895F5EDFA95F1F7000060ECBE
:1011E00080E00E94B6088091AE01E5CFEF92FF92B9
:1011F0001F93CF93DF931F92CDB7DEB7182F660FE3
:10120000660F660F605C80E099830E94B60885EDEA
:101210008A95F1F70000E12E9981F92E18E0F70187
:1012200061917F0181E00E94B608F5EDFA95F1F732
:1012300000001150A1F70F90DF91CF911F91FF9007
:10124000EF90089590E4899F600D1124605C80E028
:101250000C94B608CF93C82F8823B1F1843698F444
:101260008A30D8F48DECC89F812D112486958695FF
:1012700086956C2F9AE0899F60191124605D81E04A
:10128000CF910C94B60869E2869F612D1124629576
:101290006F70605D81E00E94B60889E2C89F812D71
:1012A000112482958F706C2F94E6899F6019112408
:1012B0008DEC689F612D1124669566956695605D3D
:1012C00081E00E94B608CECF60E381E0CF910C941C
:1012D000B608CF93C82F87FD03C0CF910C942A097D
:1012E0006DE281E00E94B60885ED8A95F1F7000075
:1012F0008C2F8195CF910C942A096EE080E00C949C
:10130000B6086CE080E00C94B6086EE180E00C94C6
:10131000B60868E180E00C94B608E2E6F0E080816F
:10132000886080838081877F8083089561E080E08A
:101330000E94B6088FE19CE10197F1F700C0000020
:10134000089562E080E00E94B6088FE697E1019779
:10135000F1F700C00000089560EC80E00C94B6083E
:1013600060E880E00C94B608CF93C0E160E281E0D1
:101370000E94B60885ED8A95F1F70000C150B1F7DB
:10138000CF910895682F81E00C94B6081F93CF93F6
:10139000DF93EC0180E090E010E0FE01E80FF91F20
:1013A000608181E00E94B60885ED8A95F1F7000022
:1013B0001F5F812F90E0FE0101900020E9F7EC1BF8
:1013C000FD0B3297E817F90740F7DF91CF911F9196
:1013D00008958FEF99EF0197F1F700C0000088E0C2
:1013E0008093610060E380E00E94B6088FE59DE68F
:1013F0000197F1F700C0000060E380E00E94B608AA
:101400008FE59DE60197F1F700C0000060E380E002
:101410000E94B6088FE59DE60197F1F700C0000035
:1014200068E380E00E94B6088FE19EE40197F1F73F
:1014300000C0000068E080E00E94B6088FE19EE4F2
:101440000197F1F700C0000061E080E00E94B6085B
:101450008FE19EE40197F1F700C0000066E080E0B4
:101460000E94B6088FE19EE40197F1F700C00000EA
:101470006CE080E00E94B6088FE19EE40197F1F7EE
:1014800000C000000895AF92BF92CF92DF92EF921A
:10149000FF920F931F93CF93DF93CDB7DEB769977A
:1014A0000FB6F894DEBF0FBECDBFB42EF22E0023D0
:1014B00051F08B019C01002737FD0395112722274E
:1014C000332797FD8CC0FF2009F481C010E09E01F6
:1014D0002F5F3F4F690101C0122F2AE030E040E04A
:1014E00050E00E944720A62F2A8B3B8B4C8B5D8BB4
:1014F0006A897B898C899D8921E0210FF601E10FA2
:10150000F11DA05DA0832F11E7CFAA24A394AF0CF7
:10151000F601EF0DF11D2EE2208301C0A12E2AE07D
:1015200030E040E050E00E944720A62F2A8B3B8B02
:101530004C8B5D8B6E8B7F8B888F998F6A897B89B3
:101540008C899D8911E01A0DF601EA0DF11DA05D4F
:10155000A083611571058105910501F7BB2081F01C
:10156000E1103BC090E21B1510F00AC0182F81E07B
:10157000810FF601E10FF11D90838B11F7CF1B2D29
:10158000002331F0F601E10FF11D8DE280831F5F32
:101590001150F601E10FF11D608181E00E94B60853
:1015A00035ED3A95F1F700001111F2CF69960FB6BB
:1015B000F894DEBF0FBECDBFDF91CF911F910F9189
:1015C000FF90EF90DF90CF90BF90AF900895A12C47
:1015D0009E012F5F3F4F6901A2CF90E3C4CF90954A
:1015E0008095709561957F4F8F4F9F4F6CCF9F92E5
:1015F000AF92BF92CF92DF92EF92FF920F931F9321
:10160000CF93DF93CDB7DEB761970FB6F894DEBF07
:101610000FBECDBFFC01E62E942EB22ECF2ECC1CD9
:10162000CC24CC1CFC2C19F0F195E195F109992002
:1016300009F485C0D12C8E010F5F1F4F01C0D92E38
:101640006AE070E0CF010E943320262FE22FF72FAF
:1016500091E09D0DD801AD0DB11D805D8C93991168
:10166000EECFAA24A394A90CD801A90DB11D8EE236
:101670008C9301C0AD2C6AE070E0CF010E94332052
:10168000262FE22FF72FDD24D394DA0CD801AA0DF0
:10169000B11D805D8C93309769F78D2DBB2051F182
:1016A000E11052C0FF2031F0F801ED0DF11D8DE287
:1016B0008083D394DA94F801ED0DF11D608181E00F
:1016C0000E94B60885ED8A95F1F70000D110F2CF9F
:1016D00061960FB6F894DEBF0FBECDBFDF91CF91FC
:1016E0001F910F91FF90EF90DF90CF90BF90AF9040
:1016F0009F900895CC2041F052E0D52EDA0CF801ED
:10170000E80FF11D8DE28083EE20A1F220E030E0B1
:10171000F12C40E28D2D90E06E2D70E0621B730B7A
:10172000861797070CF0BECFD394F801E80FF91F86
:1017300040838D2D90E086179707B4F3B3CFA12C8B
:101740008E010F5F1F4F97CF2C2D30E040E3E2CF8B
:10175000929A109273021092720290E0909371022A
:10176000809370020895CF93929810927302109212
:10177000720230E0309371022093700250E04930E1
:10178000510520F01BBC1ABCCF910895435B5F4FFD
:10179000FA01992787FD9095A92FB92F81549109B6
:1017A0000C9466208730910578F78A5A9F4FFC0188
:1017B0000C9466208730910538F7835A9F4FFC01BF
:1017C0000C94662087309105F8F68C599F4FFC01E8
:1017D0000C94662087309105B8F685599F4FFC011F
:1017E0000C9466208730910578F68E589F4FFC0147
:1017F0000C9466208730910538F687589F4FFC017E
:101800000C9466208730910508F0BECF80589F4F1A
:10181000FC010C9466208730910508F0B5CF8957FC
:101820009F4FFC010C9466208730910508F0ACCFE7
:1018300082579F4FFC010C94662088E590E09BBD89
:101840008ABDA2CF662309F40FC283E690E09BBD58
:101850008ABD9ACF662309F411C28FE690E09BBD42
:101860008ABD92CF86E790E09BBD8ABD8DCF66236F
:1018700009F4FFC18AE490E09BBD8ABD85CF662351
:1018800009F401C283E590E09BBD8ABD7DCF66234C
:1018900009F4B8C182E490E09BBD8ABD75CF81EBAD
:1018A00090E09BBD8ABD70CF662309F4D3C185E863
:1018B00090E09BBD8ABD68CF662309F4C1C185E96C
:1018C00090E09BBD8ABD60CF662309F4BEC187EA64
:1018D00090E09BBD8ABD58CF84E691E09BBD8ABD58
:1018E00053CF662309F4BBC180EE90E09BBD8ABD57
:1018F0004BCF8DEE90E09BBD8ABD46CF662309F4A9
:101900008BC187EC90E09BBD8ABD3ECF662309F476
:1019100074C180E991E09BBD8ABD36CF662309F48E
:10192000CBC184E893E09BBD8ABD2ECF662309F42A
:10193000AFC18BE291E09BBD8ABD26CF662309F43F
:10194000B1C182EA92E09BBD8ABD1ECF8CED91E0D1
:101950009BBD8ABD19CF662309F459C187E192E086
:101960009BBD8ABD11CF662309F4B0C188E592E022
:101970009BBD8ABD09CF8AEC92E09BBD8ABD04CF96
:10198000662309F435C186E496E09BBD8ABDFCCE92
:10199000662309F482C18AE097E09BBD8ABDF4CE3C
:1019A00086E995E09BBD8ABDEFCE8AEB93E09BBDB7
:1019B0008ABDEACE662309F47AC181EC91E09BBD31
:1019C0008ABDE2CE662309F47CC18BE091E09BBD29
:1019D0008ABDDACE662309F47EC180E591E09BBD25
:1019E0008ABDD2CE662309F4ADC182E293E09BBDED
:1019F0008ABDCACE86E797E09BBD8ABDC5CE662369
:101A000009F40FC18EEC92E19BBD8ABDBDCE662369
:101A100009F47AC18DE195E19BBD8ABDB5CE6623FF
:101A200009F4DCC080E698E09BBD8ABDADCE66239C
:101A300009F492C180E190E09BBD8ABDA5CE8EE203
:101A40009BE09BBD8ABDA0CE662309F449C18BE112
:101A500090E09BBD8ABD98CE8CE190E09BBD8ABD95
:101A600093CE662309F441C187E090E09BBD8ABD17
:101A70008BCE662309F4DAC08BE090E09BBD8ABD73
:101A800083CE82E190E09BBD8ABD7ECE662309F4C1
:101A90009BC089E199E19BBD8ABD76CE662309F49E
:101AA00029C180E39CE19BBD8ABD6ECE8CED9DE19A
:101AB0009BBD8ABD69CE8AE390E09BBD8ABD64CEA2
:101AC000662309F435C180E290E09BBD8ABD5CCEFF
:101AD000662309F432C184E290E09BBD8ABD54CEF6
:101AE000662309F476C089E290E09BBD8ABD4CCEA6
:101AF000662309F478C081E390E09BBD8ABD44CEA3
:101B00008BE290E09BBD8ABD3FCE662309F493C073
:101B100087E390E09BBD8ABD37CE662309F44FC0B2
:101B200088E190E09BBD8ABD2FCE662309F4F6C004
:101B300082EB94E09BBD8ABD27CE662309F416C1D3
:101B40008DE89AE09BBD8ABD1FCE662309F4D7C0FD
:101B500086E19EE09BBD8ABD17CE662309F4F7C0DF
:101B600080EC90E19BBD8ABD0FCE662309F4D1C005
:101B70008FE294E09BBD8ABD07CE662309F4F1C0D5
:101B800087E699E09BBD8ABDFFCD662309F4CBC0F3
:101B90008DE89CE09BBD8ABDF7CD8DE596E19BBDB0
:101BA0008ABDF2CD662309F4E6C086E495E09BBDCC
:101BB0008ABDEACD8DEE9EE09BBD8ABDE5CD85E177
:101BC00090E09BBD8ABDE0CD82EB97E19BBD8ABDD5
:101BD000DBCD86E290E09BBD8ABDD6CD87EE97E057
:101BE0009BBD8ABDD1CD8EE290E09BBD8ABDCCCDA0
:101BF0008BEE95E09BBD8ABDC7CD8AE791E09BBD8A
:101C00008ABDC2CD8EE390E09BBD8ABDBDCD89EF7C
:101C100091E09BBD8ABDB8CD8CEB90E09BBD8ABDA9
:101C2000B3CD80EC91E19BBD8ABDAECD89E090E063
:101C30009BBD8ABDA9CD84E390E09BBD8ABDA4CDA8
:101C40008DE890E09BBD8ABD9FCD8EE990E09BBD65
:101C50008ABD9ACD8DE790E09BBD8ABD95CD83ED81
:101C600090E09BBD8ABD90CD8DE590E09BBD8ABD87
:101C70008BCD86E490E09BBD8ABD86CD89E690E061
:101C80009BBD8ABD81CD8EE490E09BBD8ABD7CCD9D
:101C90008BE191E09BBD8ABD77CD85EA96E09BBD47
:101CA0008ABD72CD8CE792E09BBD8ABD6DCD88EA7E
:101CB00091E09BBD8ABD68CD82E593E09BBD8ABD66
:101CC00063CD8CEF90E09BBD8ABD5ECD87E392E053
:101CD0009BBD8ABD59CD8DE391E09BBD8ABD54CD9E
:101CE00089E190E09BBD8ABD4FCD85E090E09BBD32
:101CF0008ABD4ACD8AE99AE19BBD8ABD45CD8CE477
:101D00009DE09BBD8ABD40CD8DEE93E19BBD8ABD1C
:101D10003BCD83EF93E09BBD8ABD36CD8FE694E04B
:101D20009BBD8ABD31CD88ED9BE09BBD8ABD2CCD8E
:101D30008EE190E09BBD8ABD27CD82E290E09BBD05
:101D40008ABD22CD85EF92E09BBD8ABD1DCD80ED81
:101D50009FE09BBD8ABD18CD8DE090E09BBD8ABD04
:101D600013CD8FED98E09BBD8ABD0ECD86EF99E037
:101D70009BBD8ABD09CD8AEF94E09BBD8ABD04CD91
:101D80008634910520F08FEF80936E020895FC0158
:101D9000EB56FF4F0C94662022E044E060E081E4C3
:101DA0000C94B30B26E044E060E081E40C94B30BA8
:101DB00022E044E061E081E40C94B30B28E044E0CD
:101DC00060E084E40C94B30B28E044E060E086E437
:101DD0000C94B30B26E044E061E082E40C94B30B76
:101DE00028E044E060E083E40C94B30B28E044E096
:101DF00060E081E40C94B30B28E044E060E087E409
:101E00000C94B30B28E044E060E085E40C94B30B41
:101E100020E144E060E081E40C94B30B24E045E071
:101E200060E083E40C94B30B24E045E060E084E4DC
:101E30000C94B30B929A109273021092720288E083
:101E400090E090937102809370020895929A10929C
:101E500073021092720281E090E09093710280937D
:101E60007002089520E144E061E082E40C94B30B39
:101E700028E044E061E082E40C94B30B28E144E004
:101E800060E087E40C94B30B20E145E060E084E47B
:101E90000C94B30B929A109273021092720282E029
:101EA00090E09093710280937002089524E044E0E2
:101EB00060E081E40C94B30B26E044E060E087E44A
:101EC0000C94B30B24E044E061E087E40C94B30B82
:101ED00028E044E061E087E40C94B30B23E044E0A5
:101EE00060E087E40C94B30B20E144E060E084E41C
:101EF0000C94B30B20E145E060E083E40C94B30B59
:101F000022E044E061E082E40C94B30B24E045E07D
:101F100061E084E40C94B30B24E044E061E081E4EC
:101F20000C94B30B28E044E060E082E40C94B30B23
:101F300028E144E060E086E40C94B30B27E044E041
:101F400060E087E40C94B30B8F33910520F08FEFA2
:101F500080936E020895FC01E552FF4F0C946620B9
:101F600024E044E060E083E40C94B30B28E044E018
:101F700060E085E40C94B30B929A10927302109275
:101F8000720281E090E09093710280937002089554
:101F900028E044E060E084E40C94B30B20E143E0EB
:101FA00060E083E40C94B30B24E044E060E084E45C
:101FB0000C94B30B24E043E060E082E40C94B30B98
:101FC00027E043E060E081E40C94B30B24E044E0BC
:101FD00060E086E40C94B30B20E142E060E082E430
:101FE0000C94B30B20E143E060E081E40C94B30B6C
:101FF00028E044E060E083E40C94B30B20E143E08C
:1020000060E084E40C94B30B20E143E060E085E4FD
:102010000C94B30B929A109273021092720288E0A1
:1020200090E09093710280937002089527E043E05E
:1020300060E082E40C94B30B2CE043E060E082E4C7
:102040000C94B30B20E143E061E081E40C94B30B0A
:10205000929A109273021092720280E190E0909333
:10206000710280937002089524E044E060E087E408
:102070000C94B30B28E042E060E082E40C94B30BD4
:1020800020E142E060E081E40C94B30B20E142E007
:1020900061E081E40C94B30B2CE044E060E085E463
:1020A0000C94B30B22E044E060E084E40C94B30BA6
:1020B00022E044E060E085E40C94B30B28E043E0C8
:1020C00060E083E40C94B30B24E043E060E081E43F
:1020D0000C94B30B28E043E060E085E40C94B30B70
:1020E00028E043E060E081E40C94B30B929A1092F4
:1020F00073021092720284E090E0909371028093D8
:102100007002089528E044E060E081E40C94B30B91
:102110008539910520F08FEF80936E020895FC01C0
:10212000E65EFE4F0C94662024E043E060E087E426
:102130000C94B30B22E043E060E081E40C94B30B19
:10214000929A109273021092720282E090E0909341
:10215000710280937002089522E044E060E083E41D
:102160000C94B30B22E044E060E085E40C94B30BE4
:1021700024E044E060E084E40C94B30B22E044E00B
:1021800060E083E40C94B30B929A10927302109265
:10219000720282E090E09093710280937002089541
:1021A00022E044E060E083E40C94B30B929A109236
:1021B00073021092720282E090E090937102809319
:1021C0007002089522E044E060E083E40C94B30BD5
:1021D000929A109273021092720281E090E09093B2
:1021E000710280937002089522E044E060E083E48D
:1021F0000C94B30B929A109273021092720280E1C7
:1022000090E09093710280937002089522E044E080
:1022100060E085E40C94B30B22E044E060E084E4E9
:102220000C94B30B22E044E060E083E40C94B30B25
:10223000929A109273021092720282E090E0909350
:10224000710280937002089522E044E060E083E42C
:102250000C94B30B929A109273021092720282E065
:1022600090E09093710280937002089522E044E020
:1022700060E083E40C94B30B929A10927302109274
:10228000720281E090E09093710280937002089551
:1022900022E044E060E083E40C94B30B929A109245
:1022A00073021092720284E090E090937102809326
:1022B0007002089524E043E060E087E40C94B30BDF
:1022C00022E043E060E081E40C94B30B929A109218
:1022D00073021092720282E090E0909371028093F8
:1022E0007002089522E044E060E083E40C94B30BB4
:1022F00022E044E060E085E40C94B30B24E044E089
:1023000060E084E40C94B30B22E044E060E083E4FA
:102310000C94B30B929A109273021092720282E0A4
:1023200090E09093710280937002089522E044E05F
:1023300060E083E40C94B30B929A109273021092B3
:10234000720282E090E0909371028093700208958F
:1023500022E044E060E083E40C94B30B929A109284
:1023600073021092720281E090E090937102809368
:102370007002089522E044E060E083E40C94B30B23
:10238000929A10927302109272028AE090E09093F7
:10239000710280937002089524E044E060E083E4D9
:1023A0000C94B30B929A109273021092720284E012
:1023B00090E09093710280937002089522E044E0CF
:1023C00060E084E40C94B30B929A10927302109222
:1023D000720282E090E090937102809370020895FF
:1023E00024E044E061E085E40C94B30B929A1092EF
:1023F00073021092720284E090E0909371028093D5
:102400007002089522E044E060E084E40C94B30B91
:1024100022E044E060E083E40C94B30B22E043E06C
:1024200060E081E40C94B30B929A109273021092C4
:10243000720282E090E0909371028093700208959E
:1024400022E044E060E083E40C94B30B22E043E03C
:1024500060E081E40C94B30B22E043E061E081E4AE
:102460000C94B30B929A109273021092720282E053
:1024700090E09093710280937002089522E044E00E
:1024800060E085E40C94B30B929A10927302109260
:10249000720282E090E0909371028093700208953E
:1024A00022E044E061E085E40C94B30B22E044E0D8
:1024B00060E086E40C94B30B22E044E061E087E442
:1024C0000C94B30B22E044E060E087E40C94B30B7F
:1024D000929A109273021092720288E090E09093A8
:1024E000710280937002089524E044E060E087E484
:1024F0000C94B30B929A109273021092720281E0C4
:1025000090E09093710280937002089521E044E07E
:1025100060E087E40C94B30B929A109273021092CD
:10252000720282E090E090937102809370020895AD
:1025300022E044E060E087E40C94B30B929A10929E
:1025400073021092720282E090E090937102809385
:102550007002089522E043E060E085E40C94B30B40
:10256000929A109273021092720282E090E090931D
:10257000710280937002089522E043E061E085E4F7
:102580000C94B30B22E043E060E086E40C94B30BC0
:1025900022E043E061E087E40C94B30B22E043E0E7
:1025A00060E087E40C94B30B929A1092730210923D
:1025B000720284E090E0909371028093700208951B
:1025C00022E044E060E084E40C94B30B22E044E0B9
:1025D00060E083E40C94B30B22E043E060E081E42C
:1025E0000C94B30B929A109273021092720282E0D2
:1025F00090E09093710280937002089522E044E08D
:1026000060E083E40C94B30B22E043E060E081E4FB
:102610000C94B30B22E043E061E081E40C94B30B33
:10262000929A109273021092720282E090E090935C
:10263000710280937002089522E044E060E085E436
:102640000C94B30B929A109273021092720282E071
:1026500090E09093710280937002089522E044E02C
:1026600061E085E40C94B30B22E044E060E086E492
:102670000C94B30B22E044E061E087E40C94B30BCC
:1026800022E044E060E087E40C94B30B929A10924D
:1026900073021092720288E090E09093710280932E
:1026A0007002089522E043E060E082E40C94B30BF2
:1026B00022E044E060E084E40C94B30B22E044E0C8
:1026C00060E083E40C94B30B929A10927302109220
:1026D000720282E090E090937102809370020895FC
:1026E00022E044E060E085E40C94B30B929A1092EF
:1026F00073021092720282E090E0909371028093D4
:102700007002089522E044E060E087E40C94B30B8B
:1027100022E044E060E086E40C94B30B24E044E063
:1027200060E081E40C94B30B22E044E060E087E4D5
:102730000C94B30B929A109273021092720281E081
:1027400090E09093710280937002089522E044E03B
:1027500060E085E40C94B30B23E043E060E087E4A1
:102760000C94B30B24E043E060E081E40C94B30BE1
:1027700022E043E061E082E40C94B30B929A109261
:1027800073021092720282E090E090937102809343
:102790007002089522E043E060E082E40C94B30B01
:1027A000929A109273021092720282E090E09093DB
:1027B000710280937002089522E043E060E081E4BA
:1027C0000C94B30B929A109273021092720282E0F0
:1027D00090E09093710280937002089524E043E0AA
:1027E00060E085E40C94B30B929A109273021092FD
:1027F000720283E090E090937102809370020895DA
:1028000022E043E060E087E40C94B30B929A1092CC
:1028100073021092720282E090E0909371028093B2
:102820007002089525E044E060E083E40C94B30B6B
:10283000929A109273021092720284E090E0909348
:10284000710280937002089522E043E060E082E428
:102850000C94B30B22E044E060E084E40C94B30BEE
:1028600022E044E060E083E40C94B30B929A10926F
:1028700073021092720282E090E090937102809352
:102880007002089522E044E060E085E40C94B30B0C
:10289000929A109273021092720282E090E09093EA
:1028A000710280937002089522E044E060E087E4C2
:1028B0000C94B30B22E044E060E086E40C94B30B8C
:1028C00024E044E060E081E40C94B30B22E044E0B7
:1028D00060E087E40C94B30B929A1092730210920A
:1028E000720281E090E090937102809370020895EB
:1028F00022E044E060E085E40C94B30B23E043E085
:1029000060E087E40C94B30B24E043E060E081E4F2
:102910000C94B30B22E043E061E082E40C94B30B2F
:10292000929A109273021092720282E090E0909359
:10293000710280937002089522E043E060E082E437
:102940000C94B30B929A109273021092720282E06E
:1029500090E09093710280937002089522E043E02A
:1029600060E081E40C94B30B929A1092730210927F
:10297000720282E090E09093710280937002089559
:1029800024E043E060E085E40C94B30B929A10924B
:1029900073021092720284E090E09093710280932F
:1029A0007002089522E043E060E087E40C94B30BEA
:1029B00025E044E060E083E40C94B30B929A10921B
:1029C00073021092720288E090E0909371028093FB
:1029D0007002089528E042E060E087E40C94B30BB5
:1029E00028E044E060E087E40C94B30B24E044E08A
:1029F00060E085E40C94B30B22E044E060E083E403
:102A00000C94B30B929A109273021092720282E0AD
:102A100090E09093710280937002089522E044E068
:102A200060E085E40C94B30B929A109273021092BA
:102A3000720281E090E09093710280937002089599
:102A400023E044E060E085E40C94B30B929A10928A
:102A500073021092720281E090E090937102809371
:102A60007002089521E044E060E085E40C94B30B2B
:102A7000929A109273021092720288E090E0909302
:102A800071028093700208958F31910520F08FEFCD
:102A900080936E020895FC01E155FE4F0C94662070
:102AA000929A109273021092720281E090E09093D9
:102AB000710280937002089524E045E060E085E4AF
:102AC0000C94B30B27E044E060E085E40C94B30B76
:102AD00027E044E061E085E40C94B30B929A1092F5
:102AE00073021092720285E090E0909371028093DD
:102AF0007002089528E045E060E085E40C94B30B93
:102B000023E044E061E085E40C94B30B23E044E06F
:102B100060E085E40C94B30B28E045E060E087E4D6
:102B20000C94B30B24E045E061E085E40C94B30B16
:102B300023E045E060E085E40C94B30B24E045E03D
:102B400061E087E40C94B30B28E045E061E087E4A2
:102B50000C94B30B813089F060F0823031F0833017
:102B600041F4862F90E00C944415862F90E00C944D
:102B70008810862F90E00C94C00E862F90E00C9465
:102B8000A40F10926E028EB58C7F8EBD929A08951E
:102B900010926E028EB583608EBD929860916E0227
:102BA00080916F020C94AA1587B7806187BF1FBC04
:102BB0008EB588608EBD10927A0081E390E09BBD57
:102BC0008ABD10926E028EB58C7F8EBD929A109245
:102BD000730210927202109271021092700210929F
:102BE0006E0282E080936F0208951F920F920FB6DB
:102BF0000F9211240BB60F922F933F938F939F93B5
:102C0000AF93BF93EF93FF938091710090E0FC012D
:102C10003897E135F105B0F080917100809374022E
:102C200084E080937400FF91EF91BF91AF919F91E9
:102C30008F913F912F910F900BBE0F900FBE0F9071
:102C40001F901895E253FE4F0C9466208091AF01BF
:102C5000E0917502F0917602E80FF11D809173000A
:102C6000808384E980937400DECF80917702809323
:102C700073001092AF0185E880937400D4CF8091E7
:102C80007902882309F443C08091AF01813009F4AF
:102C900046C0E0917502F091760291E0980F909312
:102CA000AF01E80FF11D80818093730085E8809368
:102CB0007400B9CF85EA80937400B5CF2091AF013D
:102CC0008091780230E090E0019728173907DCF412
:102CD00085EC80937400A7CFE0917502F0917602A5
:102CE0008091AF0121E0280F2093AF01E80FF11D83
:102CF0008091730080838091780230E090E00197AA
:102D0000281739072CF385E8809374008CCF8091C5
:102D1000AF0190917802891708F0A3CFBACF109233
:102D200079028091770281608093770280917702A7
:102D30008093730085EA8093740075CF809174004E
:102D4000817008959091740090FDFCCF8E7F8093E8
:102D50007702709376026093750240937802109226
:102D6000790285EA8093740008959091740090FD33
:102D7000FCCF816080937702709376026093750236
:102D8000409378021092790285EA80937400089546
:102D90009091740090FDFCCF8E7F809377027093AA
:102DA0007602609375024093780281E08093790205
:102DB00085EA8093740008958FEF809373001092DA
:102DC00071008CE08093700008955D9BFECF8CB9FC
:102DD0005D9BFECF0895FC012081222349F03196AE
:102DE0005D9BFECF2CB95D9BFECF21912111F8CFC9
:102DF00008959C01FC014491442369F00196F90176
:102E000024915D9BFECF2CB95D9BFECF9C01FC0104
:102E100044914111F3CF08958AB188618AB9E5E9F7
:102E2000F0E08081866080831092900087E689B907
:102E3000089580E89EE303C00197009721F05F9B0F
:102E4000FBCF8CB1089580E008958A30910528F475
:102E5000FC01E258FE4F8081089583E20895CF92ED
:102E6000DF92FF920F931F93CF93DF93EC0177FDD7
:102E7000F4C010E0CB0196958795929582958F705E
:102E800089279F7089278370992759E1589F90015E
:102E9000599F300D1124660F672F661F770B7195B0
:102EA0006F73772784E6869FF001879FF00D1124CA
:102EB000E20FF31F4423A1F0BF0180E090E00E94E5
:102EC000962126E636E646EE5FE30E94242220E0C5
:102ED00030E048E455E40E949E200E946A21FB01F4
:102EE0009F01329522952F7023273F702327A7E457
:102EF000B3E00E946C20DC01B695A795B695A79526
:102F0000B695A795A258BE4F0C9108839F013695A0
:102F100027953695279536952795A5ECB0E20E9422
:102F20006C206C01D294C2945FE0C522CD24D522DE
:102F3000CD249601ADECBCEC0E946C209695879553
:102F40009695879596958795AC01440F551F880FE8
:102F5000991F880F991F880F991F480F591FD60175
:102F6000A41BB50BA258BE4FFC90F9829F01369569
:102F7000279536952795ABE7B4E10E946C206C014C
:102F8000D694C7949601ADECBCEC0E946C2096954B
:102F900087959695879596958795AC01440F551F13
:102FA000880F991F880F991F880F991F480F591F65
:102FB000D601A41BB50BA258BE4F8C918A838EE21A
:102FC0008B839F01ADECBCEC0E946C20AC0156954C
:102FD000479556954795569547959A010E946C20BE
:102FE0009695879596958795969587959C01220F3E
:102FF000331F880F991F880F991F880F991F280F5B
:10300000391FDA01A21BB30BA258BE4F8C918C83DF
:10301000CA01880F991F440F551F440F551F440FB5
:10302000551F840F951FE81BF90BE258FE4F808156
:103030008D83003349F0812FDF91CF911F910F9144
:10304000FF90DF90CF90089511111FC080E2888318
:1030500080E3F816F9F010E0EECF7F77769567956C
:10306000729562956F7067277F706727609587E01C
:1030700078276F5F7F4F660F771F62957295707F1D
:103080007627607F762711E0F5CE8DE2888380E396
:10309000F812E1CF88818D3221F080E2898310E03F
:1030A000CACF90E29883898310E0C5CF84E18093F2
:1030B000FB0241E06BEF72E082E20E94A2160E94E6
:1030C0009E168111FCCF8FEA94E00197F1F700C0C2
:1030D000000041E060E573E082E20E94B5160E94C4
:1030E0009E168111FCCF80915003089580E2809359
:1030F000FB021092FC028091490390914A03909345
:10310000FD028093FE021092FF0210924B0345E0F5
:103110006BEF72E082E20E94A2162FEF85EA9EE03A
:10312000215080409040E1F700C00000089580E405
:103130008093FB021092FC0280911F039091200368
:103140009093FD028093FE021092FF021092000302
:1031500010924B0346E06BEF72E082E20E94A216EF
:1031600080914B038823E1F3089580E48093FB0270
:103170001092FC0280914C0390914D039093FD02BC
:103180008093FE021092FF0281E08093000346E0EC
:103190006BEF72E082E20E94A2162FEF87EE93E0BF
:1031A000215080409040E1F700C00000089581E187
:1031B0008093FB0241E06BEF72E082E20E94A21674
:1031C00087ED94E00197F1F700C00000089583E2D5
:1031D0008093FB0281E08093FC0242E06BEF72E09F
:1031E00082E20E94A2160E949E168111FCCF8FEAF5
:1031F00094E00197F1F700C0000048E064E073E05C
:1032000082E20E94B5160E949E168111FCCF08959D
:1032100082E28093FB0281E08093FC0242E06BEF4C
:1032200072E082E20E94A2160E949E168111FCCFDB
:103230008FEA94E00197F1F700C0000048E064E0F5
:1032400073E082E20E94B5160E949E168111FCCFA7
:10325000089582E48093FB0281E08093FC0242E0C7
:103260006BEF72E082E20E94A2160E949E1681110C
:10327000FCCF8FEA94E00197F1F700C0000048E02E
:1032800064E073E082E20C94B51683E48093FB0261
:1032900081E08093FC0242E06BEF72E082E20E94E8
:1032A000A2160E949E168111FCCF8FEA94E001972E
:1032B000F1F700C0000048E064E073E082E20C94A3
:1032C000B51622E12093FB021092FC029093FD02BE
:1032D0008093FE027093FF026093000346E06BEF61
:1032E00072E082E20E94A2168FE39CE90197F1F757
:1032F00000C00000089581E08093FB0280E5809388
:10330000FC0285E08093FD0243E06BEF72E082E215
:103310000E94A2162FEF8BED95E021508040904047
:10332000E1F700C0000061E070E081E090E00C9403
:1033300061198CE093E00E948F2290932003809388
:103340001F038EEC92E00E94872280930E0381E09F
:103350008093FB0281E58093FC0285E08093FD026F
:1033600043E06BEF72E082E20E94A2162FEF8BED3A
:1033700095E0215080409040E1F700C0000061E0FE
:1033800070E081E090E00C9461198EE493E00E947B
:103390008F2290934D0380934C038EEC92E00E9419
:1033A000872280930E0381E08093FB0281E5809366
:1033B000FC0285E08093FD0243E06BEF72E082E265
:1033C0000E94A2162FEF8BED95E021508040904097
:1033D000E1F700C0000060E070E082E093E30E944B
:1033E000611961E071E082E091E30E94611961E09E
:1033F00070E081E090E00C946119CF93DF9300D0EE
:1034000000D0CDB7DEB78FEF87BB88EC82B980E301
:1034100081BB82E884BBA99A80EC83B983E082BB3C
:1034200089B7806189BF8AB783608ABF8DB18065A3
:103430008DB9709A0E94DC160E940C170E94E9094F
:103440000E94D41510926F0287B1806E87B986B141
:103450008F6886B980B7886080BF87B7816087BF73
:1034600083B7816083BF84E691E09BBD8ABD85B54B
:103470008D6785BD87B7806487BF13BC80918B0043
:10348000816C80938B0080918A008D6080938A008C
:103490008FEF90E09093870080938600E0E4F1E066
:1034A000A4EBB1E081918D9321E0E036F207D1F7F2
:1034B000E0E2F1E0A4EDB1E081918D9331E0E03400
:1034C000F307D1F7E0E0F1E0A4EFB1E081918D9353
:1034D00081E0E032F807D1F7789480916101882388
:1034E00009F4A6C51C98149AA99AEFE1F3E0319764
:1034F000F1F700C0000085B3827085BBF0EAFA9551
:10350000F1F714980E949E168111FCCF0E947B193E
:103510000E949E168111FCCF2FEF3EE585E02150E1
:1035200030408040E1F700C00000209167013091F9
:103530006801C901880F991F220F331F220F331F03
:10354000220F331F820F931F90934A0380934903E6
:103550000E9476180E949E168111FCCF1092CA021A
:1035600041E06AEC72E080E90E94A216EFE3FFE11D
:103570003197F1F700C00000DD24D39424E0B22E8F
:1035800034E0C32EADE6EA2EA2E0FA2EB4E64B2ECE
:103590005524539412E4212E0AE7A02E80918C0129
:1035A00081117CC189E2D89E812D112482958F7072
:1035B000FD2DE4E68E9FF0191124F111ABC020918E
:1035C0006301309164018091650190916601281733
:1035D0003907E9F02091670130916801C901880F2E
:1035E000991F220F331F220F331F220F331F820F09
:1035F000931F90934A03809349030E947618809109
:1036000065019091660190936401809363019598A0
:1036100083B18F7383B91F9A80919A018FB9779B79
:10362000FECF949A9498959A1E9A8FB18093B20186
:10363000982F9370909317028C708695869580933F
:10364000B3011ABA8FEF8BBB8FE588BB25E32A95B0
:10365000F1F700000EE911E081E090E020E2322E67
:1036600033E5732E4FE6942E5EE6852E67E6662ED2
:1036700061E072E09C838B830BC02B813C812830FE
:10368000310509F440C08B819C8101969C838B831A
:103690004B815C81415051090000000029B3F801C1
:1036A00080819181880F991F906E30E0042E02C0B6
:1036B000359527950A94E2F721703327822B932BB7
:1036C000819391938F018115904FB9F61092160254
:1036D000FA013197E730F10508F45AC180919A0157
:1036E00090919B018D7F21E0822790939B01809395
:1036F0009A0180FF0CC3609397012B813C81283095
:10370000310509F0C0CF80919A01837080939901AF
:103710008FEF88BB80919701823009F472C208F460
:1037200077C2833009F467C2843031F48091670135
:10373000909168010E9407038FEF8ABB8BBB809139
:1037400098018F5F853008F0DBC1809398018295E6
:10375000807F88BB80919701E0919801843009F4C3
:10376000DAC1F0E0E75CFD4F808190E08A3091059E
:1037700008F0F8C1FC01EC58FE4F80818BBB8091B2
:103780008D018A3008F0DBC180911602863008F086
:10379000A9C180919A01909195019C3308F475C15B
:1037A000909195019C53909395019091960121E001
:1037B000290F209396012C3308F0F3C1E0916901A1
:1037C000A0918E01B0916201A21709F4FEC14B2FA6
:1037D0009A2F86FD66C1F0E0EC3008F0D4C1319636
:1037E00084E68E9FB0018F9F700D1124620F711DB2
:1037F000709394016093930150E04C3008F0B4C191
:103800004F5F5F4F84E6849F9001859F300D1124A8
:10381000290F311D30939201209391018091610114
:10382000811159C14091170280912202481759F025
:10383000109216028270942F9170892709F43FC26A
:10384000813009F4CA945091B30180911502581740
:1038500059F0109216028270952F9170892709F401
:1038600030C2813009F4BA94F2E0CF1609F415C2DF
:1038700086E0C81609F4FFC182E0B81609F4E7C172
:1038800096E0B91609F4CFC1409322025093150275
:10389000D39480918C01882309F484CE42E06CECAF
:1038A00072E080E90E94B5168FE39FE10197F1F77E
:1038B00000C000006091CC0270E0762F66278091F6
:1038C000CD02682B4091600183E392E00E942F17A4
:1038D000882309F4A4C18DE28093DB018091330237
:1038E0008093DC01809134028093DD018091350268
:1038F0008093DE01809136028093DF018091370250
:103900008093E001809138028093E1010E94960942
:10391000EFE3FFE13197F1F700C0000060E081E0E4
:103920000E942209F5EDFA95F1F70000A0918801B7
:1039300020E2A29FD0011124AC54BE4FEEE5F2E08C
:103940008D91819332E0ED36F307D1F78EE592E069
:103950000E94C60960E082E00E94220985ED8A95F6
:10396000F1F70000A091880190E2A99FD0011124F5
:10397000AC53BE4FEEE5F2E08D918193EE16FF065B
:10398000D9F78EE592E00E94C60910928C010ACE0A
:10399000EA5BFF4F0C94662080918A018627809312
:1039A0008A0180918A018111D1C1809160018627AD
:1039B00080936001882309F4A1C186E48093D80133
:1039C0008093E80160CE80919A0190919B01E0E1A3
:1039D0008E2790939B0180939A0155CE80918B0105
:1039E0008F5F80938B01863008F46DC110928B013C
:1039F0002092BB01F5E7F093BC01A092BD01A0921B
:103A0000BE013092BF015BBC4ABC3DCE80918A01B1
:103A1000811180C180919A0190919B01E4E08E27F1
:103A200090939B0180939A012ECE80919A01909160
:103A30009B018E7F32E0832790939B0180939A01B4
:103A400081FF62C1709397011ECE80919A0190917F
:103A50009B01F0E48F2790939B0180939A0113CEF2
:103A600082FF61C291E090938A012091140221119A
:103A700002C09093140290918B019250943008F000
:103A8000B1C20E94C81580919A01E091690120910C
:103A90009601B09162014B2FA0918E019A2F86FF63
:103AA0009ACE30E084E6E89F200D311D112430933A
:103AB000940120939301892F90E0E4E64E9F800DBE
:103AC000911D112490939201809391018091610145
:103AD000882309F4A7CE10926101409117025091FA
:103AE000B301D2CE1092160280919A0190919B015F
:103AF0008C7F90939B0180939A01109297014BCEFB
:103B00001092980180E088BB80919701E091980124
:103B1000843009F026CEE13009F023CE80913A02BC
:103B200090E08A30910508F02FC1FC01E659FE4F64
:103B300080818BBB80918D018A3008F425CE109254
:103B40008D011092890180919A0190919B018F774C
:103B500090939B0180939A0181E080938A010E9457
:103B6000C81512CE8FEF0ACE4B50510984E6849FC0
:103B70009001859F300D1124290F311D3093920142
:103B8000209391014BCE3B9784E68E9FB0018F9F8F
:103B9000700D1124620F711D709394016093930155
:103BA0002BCE25EC290F2093960190916901E1E03D
:103BB000E90FE83110F0E9EEE90FE0936901A09117
:103BC0008E01B0916201A21302CEBE1709F448CF54
:103BD000922F4B2FFECD80918A018111A4C01092AB
:103BE000890180919A0190919B018F7790939B011D
:103BF00080939A018ACD8091140290E00E9407037D
:103C00009BCD80919101909192010E94070394CDE8
:103C100080919301909194010E9407038DCD80E2E1
:103C20008093DB015BCE80919901813009F441C121
:103C300008F417C18230E1F480916201873108F005
:103C400089C18F5F80936201A4E0BA2E1DCE80915E
:103C50009901813009F4FAC008F4B4C0823041F40B
:103C600080916201882309F48BC1815080936201A5
:103C7000E4E0BE2E09CE80919901813009F40EC195
:103C800008F4C8C08230C1F4AB3308F058C1AF5F4C
:103C9000A0938E01E4E0CE2EEFCD8091990181308A
:103CA00009F4ADC008F472C0823031F4AA2309F4DB
:103CB0005BC1A150A0938E0134E0C32EDDCDC3942F
:103CC000C2CDB394D1CD833009F41DC108F045C0F5
:103CD000813009F409C1823009F08ACE7092BB01AB
:103CE0009092BC018092BD016092BE0180E38093FE
:103CF000BF0110926F0210926E02C5CC83E48093D4
:103D0000D8018093E801BFCC10929701BCCC1092EF
:103D10009701B3CC10928A0169837A830E94C115FE
:103D20007A81698177CE80919A0190919B01806818
:103D300090939B0180939A0181E080938901109276
:103D40008A010E94C11580919A01DFCC69837A8330
:103D50000E94C8157A81698128CE843009F4B4C0E4
:103D6000853009F045CE7092BB019092BC018092E3
:103D7000BD016092BE0183E38093BF0183E0809325
:103D80006F0210926E027FCC8FE7F8CC83E08093B5
:103D9000970180911402823008F429C180911402A5
:103DA0008150809314022091140233EF3203C0013A
:103DB000112488519F4F909387008093860034E0B0
:103DC000C32E5ACD84E08093970180916501909134
:103DD00066019C01215031092115310509F4A6C065
:103DE0003093660120936501880F991F83599C4F7A
:103DF0009093680180936701E4E0BE2E45CD8091E9
:103E00009601882309F4C2C081508093960134E062
:103E1000C32E32CD83E080939701809114028A30C3
:103E200008F0DCC0809114028F5F8093140220910F
:103E3000140233EF3203C001112488519F4F909335
:103E4000870080938600F4E0CF2E16CD8091690123
:103E5000882309F4B1C0815080936901E4E0BE2E4B
:103E600013CD84E080939701809165019091660164
:103E70009C012F5F3F4F2536310508F094C03093E9
:103E8000660120936501880F991F8F589C4F90936E
:103E9000680180936701B4E0BB2EF6CC8091960157
:103EA0008B3308F08FC08F5F8093960114E0C12E92
:103EB000E3CC80916901873108F051C08F5F809316
:103EC000690184E0B82EE0CC7092BB019092BC01F5
:103ED0008092BD016092BE0132E33093BF017093C6
:103EE0006F0210926E02CFCB82E58093BB0181E618
:103EF0008093BC0184E68093BD0189E68093BE0176
:103F00009092BF01C0CB7092BB019092BC01809295
:103F1000BD016092BE0121E32093BF0160936F0257
:103F200010926E02B0CB922F4E2F53CC84E690E0CD
:103F3000909366018093650187E394E059CF1092D6
:103F40008E01B73108F069C0BF5FB093620174E0C1
:103F5000C72E92CC10926201F4E0BF2E95CC109245
:103F6000690104E0B02E90CC8BE380938E01BB23DB
:103F700009F458C0B150B093620134E0C32E7CCC38
:103F800087E180936201E4E0BE2E7ECC8BE38093D8
:103F90009601809169018823D1F181508093690154
:103FA00034E0C32E69CCE1E0F0E0F0936601E093E9
:103FB000650181E793E06BCF87E180936901E4E0DD
:103FC000BE2E62CC10929601809169018731D0F4A7
:103FD0008F5F80936901B4E0CB2E4ECC8AE0809352
:103FE000140225CF9A2F4B2F2A2FEB2FF2CB1092B2
:103FF00014028FEF90E0909387008093860034E066
:10400000C32E3ACC10926901A4E0CA2E35CC87E1C8
:104010008093690134E0C32E2FCC1092620164E0DA
:10402000C62E2ACC87E18093620134E0C32E24CCD3
:10403000DD24D39484E0B82E94E0C92EA3CAAA1B31
:10404000BB1B51E107C0AA1FBB1FA617B70710F083
:10405000A61BB70B881F991F5A95A9F780959095B5
:10406000BC01CD01089597FB072E16F4009407D0EC
:1040700077FD09D00E941F2007FC05D03EF49095E3
:1040800081959F4F0895709561957F4F0895052EF6
:1040900097FB1EF400940E945E2057FD07D00E94FB
:1040A0007B2007FC03D04EF40C945E205095409585
:1040B000309521953F4F4F4F5F4F089590958095D4
:1040C000709561957F4F8F4F9F4F0895EE0FFF1FA3
:1040D0000590F491E02D0994A29FB001B39FC00117
:1040E000A39F700D811D1124911DB29F700D811D24
:1040F0001124911D0895A1E21A2EAA1BBB1BFD01DC
:104100000DC0AA1FBB1FEE1FFF1FA217B307E407B6
:10411000F50720F0A21BB30BE40BF50B661F771F0E
:10412000881F991F1A9469F76095709580959095EE
:104130009B01AC01BD01CF0108955058BB27AA27B0
:104140000ED048C139D130F03ED120F031F49F3F3C
:1041500011F41EF42EC10EF4E095E7FB24C1E92F03
:104160004AD180F3BA17620773078407950718F0DE
:1041700071F49EF562C10EF4E0950B2EBA2FA02DBE
:104180000B01B90190010C01CA01A0011124FF2704
:10419000591B99F0593F50F4503E68F11A16F040FF
:1041A000A22F232F342F4427585FF3CF46953795FE
:1041B0002795A795F0405395C9F77EF41F16BA0BC3
:1041C000620B730B840BBAF09150A1F0FF0FBB1F71
:1041D000661F771F881FC2F70EC0BA0F621F731FBA
:1041E000841F48F4879577956795B795F7959E3F17
:1041F00008F0B3CF9395880F08F09927EE0F9795A5
:10420000879508950CD0E6C0DED040F0D5D030F0D0
:1042100021F45F3F19F0C7C0511110C1CAC0EBD0E3
:1042200098F39923C9F35523B1F3951B550BBB277D
:10423000AA2762177307840738F09F5F5F4F220F2A
:10424000331F441FAA1FA9F333D00E2E3AF0E0E823
:1042500030D091505040E695001CCAF729D0FE2F6F
:1042600027D0660F771F881FBB1F26173707480701
:10427000AB07B0E809F0BB0B802DBF01FF279358B7
:104280005F4F2AF09E3F510568F08DC0D7C05F3F59
:10429000ECF3983EDCF3869577956795B795F7959F
:1042A0009F5FC9F7880F911D9695879597F9089597
:1042B000E1E0660F771F881FBB1F62177307840733
:1042C000BA0720F0621B730B840BBA0BEE1F88F742
:1042D000E095089598D088F09F5790F0B92F9927CE
:1042E000B751A0F0D1F0660F771F881F991F1AF001
:1042F000BA95C9F712C0B13081F09FD0B1E00895EE
:104300009CC0672F782F8827B85F39F0B93FCCF36E
:10431000869577956795B395D9F73EF490958095F6
:10432000709561957F4F8F4F9F4F0895E89409C016
:1043300097FB3EF490958095709561957F4F8F4FD8
:104340009F4F9923A9F0F92F96E9BB279395F695EE
:10435000879577956795B795F111F8CFFAF4BB0F6C
:1043600011F460FF1BC06F5F7F4F8F4F9F4F16C0D0
:10437000882311F096E911C0772321F09EE8872F5A
:10438000762F05C0662371F096E8862F70E060E016
:104390002AF09A95660F771F881FDAF7880F96958F
:1043A000879597F9089597F99F6780E870E060E036
:1043B00008959FEF80EC089500240A9416161706BE
:1043C00018060906089500240A9412161306140606
:1043D00005060895092E0394000C11F4882352F069
:1043E000BB0F40F4BF2B11F460FF04C06F5F7F4F21
:1043F0008F4F9F4F089557FD9058440F551F59F008
:104400005F3F71F04795880F97FB991F61F09F3FC1
:1044100079F087950895121613061406551FF2CFEA
:104420004695F1DF08C0161617061806991FF1CF3A
:1044300086957105610508940895E894BB27662761
:104440007727CB0197F908950BD0C4CFB5DF28F0BB
:10445000BADF18F0952309F0A6CFABCF1124EECF29
:10446000CADFA0F3959FD1F3950F50E0551F629FCF
:10447000F001729FBB27F00DB11D639FAA27F00DBD
:10448000B11DAA1F649F6627B00DA11D661F829FE4
:104490002227B00DA11D621F739FB00DA11D621FC9
:1044A000839FA00D611D221F749F3327A00D611DE6
:1044B000231F849F600D211D822F762F6A2F1124C8
:1044C0009F5750408AF0E1F088234AF0EE0FFF1F1B
:1044D000BB1F661F771F881F91505040A9F79E3F52
:1044E000510570F060CFAACF5F3FECF3983EDCF34C
:1044F000869577956795B795F795E7959F5FC1F78F
:10450000FE2B880F911D9695879597F90895E1994F
:10451000FECF9FBB8EBBE09A99278DB30895A8E18B
:10452000B0E042E050E00C949722DC01CB01FC01AA
:10453000E199FECF06C0FFBBEEBBE09A31960DB20B
:0E4540000D9241505040B8F70895F894FFCF07
:10454E00416363656C65726F6D6574657220205191
:10455E00582078782059207878205A207878205161
:10456E004C6F632846293A207878787878782051ED
:10457E0052656D2846293A207878787878782051D7
:10458E00416C61726D3A2042757A7A20202020515A
:10459E005369676E616C3A202A2A2A2A2A2A2A51DE
:1045AE0001010B3B003B00E7030B4079243019124D
:1045BE0002780018C0F9A4B0999282F88098303130
:0845CE00323334353637383939
:00000001FF
