:100000006AC084C083C082C081C080C07FC07EC0FF
:100010007DC07CC07BC07AC079C078C077C076C014
:1000200075C074C073C072C071C070C06FC06EC044
:10003000C3C06CC0FCC0D5C0D4C0D3C0D2C0D1C076
:10004000D0C0CFC0F4C0CDC0CCC0CBC0CAC0C9C026
:10005000C8C0C7C0F6C0C5C0C4C0C3C0C2C0C1C04C
:10006000C0C0BFC0BEC0BDC0BCC0BBC0BAC0B9C0AC
:10007000B8C0B7C0E6C0B5C0B4C0B3C0B2C0B1C0AC
:10008000B0C0AFC0AEC0ADC0ACC0ABC0AAC0A9C00C
:10009000A8C0A7C0EDC0A5C0A4C0A3C0A2C0A1C0F5
:1000A000A0C09FC0E9C09DC09CC09BC09AC099C021
:1000B00098C097C096C095C094C093C092C091C09C
:1000C00090C08FC0E7C08DC08CC08BC08AC089C073
:1000D00088C087C09DC011241FBECFEFD2E0DEBF15
:1000E000CDBF11E0A0E0B1E0E2E2F9E002C005908E
:1000F0000D92A031B107D9F721E0A0E1B1E001C034
:100100001D92AC36B207E1F735D209C479CF909190
:10011000C00095FFFCCF8093C6008091C00085FF92
:10012000FCCF0895FC012081222371F0319680914B
:10013000C00085FFFCCF2093C6008091C00085FFE2
:10014000FCCF21912111F3CF08959C01FC01449132
:10015000442391F00196F90124913091C00035FFBC
:10016000FCCF2093C6002091C00025FFFCCF9C014E
:10017000FC0144914111EECF0895E1ECF0E0808163
:1001800088618083E2ECF0E0808186608083109259
:10019000C50083E38093C400089580E89EE303C014
:1001A0000197009739F02091C00027FFF9CF809187
:1001B000C600089580E008951F920F920FB60F9227
:1001C00011242F933F938F939F93AF93BF93EF93FC
:1001D000FF938091B90090E0FC013897E135F1057B
:1001E000A0F08091B9008093630184E08093BC000B
:1001F000FF91EF91BF91AF919F918F913F912F917F
:100200000F900FBE0F901F901895E65EFF4F099458
:1002100080911001E0916401F0916501E80FF11DFA
:100220008091BB00808384E98093BC00E1CF809102
:1002300066018093BB001092100185E88093BC009A
:10024000D7CF8091100190916701891760F7E091F5
:100250006401F091650191E0980F90931001E80F0F
:10026000F11D80818093BB0085E88093BC00C0CFE6
:1002700085EA8093BC00BCCF20911001809167017A
:1002800030E090E0019728173907DCF485EC809383
:10029000BC00AECFE0916401F09165018091100146
:1002A00021E0280F20931001E80FF11D8091BB0081
:1002B00080838091670130E090E00197281739072B
:1002C0002CF385E88093BC0093CF8091BC008170B3
:1002D00008959091BC0090FDFCCF8E7F80936601C5
:1002E00070936501609364014093670185EA809390
:1002F000BC0008959091BC0090FDFCCF816080937C
:10030000660170936501609364014093670185EA1B
:100310008093BC0008958FEF8093BB001092B900CA
:100320008CE08093B80008958A30910528F4FC0190
:10033000EA5FFE4F8081089583E20895CF92DF92B5
:10034000FF920F931F93CF93DF93EC0177FDE9C0EA
:1003500010E0CB0196958795929582958F708927AD
:100360009F7089278370992759E1589F9001599F61
:10037000300D1124660F672F661F770B71956F7311
:10038000772784E6869FF001879FF00D1124E20F06
:10039000F31F442381F0BF0180E090E0CFD126E637
:1003A00036E646EE5FE358D220E030E048E455E41C
:1003B00035D198D1FB019F01329522952F702327CB
:1003C0003F702327A7E4B3E01CD1DC01B695A795C5
:1003D000B695A795B695A795AA5FBE4F0C910883D1
:1003E0009F01369527953695279536952795A5EC47
:1003F000B0E207D16C01D294C2945FE0C522CD2453
:10040000D522CD249601ADECBCECFBD0969587951A
:100410009695879596958795AC01440F551F880F43
:10042000991F880F991F880F991F480F591FD601D0
:10043000A41BB50BAA5FBE4FFC90F9829F013695B5
:10044000279536952795ABE7B4E1DBD06C01D694C0
:10045000C7949601ADECBCECD4D096958795969553
:10046000879596958795AC01440F551F880F991F66
:10047000880F991F880F991F480F591FD601A41B79
:10048000B50BAA5FBE4F8C918A838EE28B839F014E
:10049000ADECBCECB6D0AC0156954795569547955A
:1004A000569547959A01ADD09695879596958795DF
:1004B000969587959C01220F331F880F991F880FEF
:1004C000991F880F991F280F391FDA01A21BB30B40
:1004D000AA5FBE4F8C918C83CA01880F991F440F6D
:1004E000551F440F551F440F551F840F951FE81BC0
:1004F000F90BEA5FFE4F80818D83003349F0812F35
:10050000DF91CF911F910F91FF90DF90CF900895D1
:1005100011111FC080E2888380E3F816F9F010E023
:10052000EECF7F7776956795729562956F706727A6
:100530007F706727609587E078276F5F7F4F660F32
:10054000771F62957295707F7627607F762711E01E
:1005500000CF8DE2888380E3F812E1CF88818D326D
:1005600021F080E2898310E0CACF90E298838983EA
:1005700010E0C5CF8CB580658CBD8DB581608DBD1B
:10058000CADEFBDD1092680141E068E671E080E9B7
:10059000A0DE78948FE19EE40197F1F700C000009F
:1005A00044E06AE671E080E9A5DE8FE99FE001970B
:1005B000F1F700C0000080916A0190E09093120171
:1005C000809311018091110190911201982F882739
:1005D0009093120180931101809111019091120169
:1005E00020916B01822B9093120180931101D5DD34
:1005F000882381F280916A018ADD80916B0187DD19
:10060000C9CFA29FB001B39FC001A39F01D0B29FE9
:10061000700D811D1124911D08955058BB27AA27E4
:100620000ED0E0C0D1D030F0D6D020F031F49F3FD2
:1006300011F41EF4C6C00EF4E095E7FBBCC0E92F30
:10064000E2D080F3BA17620773078407950718F0A2
:1006500071F49EF5FAC00EF4E0950B2EBA2FA02D82
:100660000B01B90190010C01CA01A0011124FF275F
:10067000591B99F0593F50F4503E68F11A16F0405A
:10068000A22F232F342F4427585FF3CF4695379559
:100690002795A795F0405395C9F77EF41F16BA0B1E
:1006A000620B730B840BBAF09150A1F0FF0FBB1FCC
:1006B000661F771F881FC2F70EC0BA0F621F731F15
:1006C000841F48F4879577956795B795F7959E3F72
:1006D00008F0B3CF9395880F08F09927EE0F979500
:1006E0008795089598D088F09F5790F0B92F992753
:1006F000B751A0F0D1F0660F771F881F991F1AF02D
:10070000BA95C9F712C0B13081F09FD0B1E0089519
:100710009CC0672F782F8827B85F39F0B93FCCF39A
:10072000869577956795B395D9F73EF49095809522
:10073000709561957F4F8F4F9F4F0895E89409C042
:1007400097FB3EF490958095709561957F4F8F4F04
:100750009F4F9923A9F0F92F96E9BB279395F6951A
:10076000879577956795B795F111F8CFFAF4BB0F98
:1007700011F460FF1BC06F5F7F4F8F4F9F4F16C0FC
:10078000882311F096E911C0772321F09EE8872F86
:10079000762F05C0662371F096E8862F70E060E042
:1007A0002AF09A95660F771F881FDAF7880F9695BB
:1007B000879597F9089597F99F6780E870E060E062
:1007C00008959FEF80EC089500240A9416161706EA
:1007D00018060906089500240A9412161306140632
:1007E00005060895092E0394000C11F4882352F095
:1007F000BB0F40F4BF2B11F460FF04C06F5F7F4F4D
:100800008F4F9F4F089557FD9058440F551F59F033
:100810005F3F71F04795880F97FB991F61F09F3FED
:1008200079F087950895121613061406551FF2CF16
:100830004695F1DF08C0161617061806991FF1CF66
:1008400086957105610508940895E894BB2766278D
:100850007727CB0197F908950BD0C4CFB5DF28F0E7
:10086000BADF18F0952309F0A6CFABCF1124EECF55
:10087000CADFA0F3959FD1F3950F50E0551F629FFB
:10088000F001729FBB27F00DB11D639FAA27F00DE9
:10089000B11DAA1F649F6627B00DA11D661F829F10
:1008A0002227B00DA11D621F739FB00DA11D621FF5
:1008B000839FA00D611D221F749F3327A00D611D12
:1008C000231F849F600D211D822F762F6A2F1124F4
:1008D0009F5750408AF0E1F088234AF0EE0FFF1F47
:1008E000BB1F661F771F881F91505040A9F79E3F7E
:1008F000510570F060CFAACF5F3FECF3983EDCF378
:10090000869577956795B795F795E7959F5FC1F7BA
:10091000FE2B880F911D9695879597F90895F89469
:02092000FFCF07
:100922003033372E30303031323334353637383990
:00000001FF
